:020000040800F2
:10000000B007002091010008132A00086D2600089F
:1000100000000000000000000000000000000000E0
:10002000000000000000000000000000172A000887
:100030000000000000000000152A0008192A00082E
:10004000A3010008A3010008A3010008A301000800
:10005000A3010008A3010008A3010008A3010008F0
:10006000A3010008A3010008A3010008A3010008E0
:10007000A3010008A3010008A3010008A3010008D0
:10008000A3010008A3010008A3010008000000006C
:10009000A3010008A3010008A3010008A3010008B0
:1000A000A3010008A3010008A3010008A3010008A0
:1000B000A3010008A3010008A3010008A301000890
:1000C00000F002F800F054F812A030C808382418E4
:1000D0002D18AC4201D100F04BF80FCCA246AB4634
:1000E0000CA730CF2D1B083F3F197C427F1E544484
:1000F0002D090426F441641EAC4201D300F038F807
:100100000126334200D0FB1A3343984754465D46DC
:10011000DFE70000B0410000D0410000103A02D3F8
:1001200078C878C1FAD8520701D330C830C101D598
:1001300004680C6070470000704700000023002432
:1001400000250026103A01D378C1FBD8520700D30E
:1001500030C100D50B60704710B5642902D100F0A2
:10016000F7F810BD002010BD1FB51FBD10B510BDA4
:1001700000F04CFD1146FFF7F7FF03F029F800F0FF
:1001800064FD03B4FFF7F2FF03BC00F0B9FD00000B
:100190000748804707480047FEE7FEE7FEE7FEE71F
:1001A000FEE7FEE704480549054A064B7047000094
:1001B000212A0008C1000008B0010020B00700207B
:1001C000B0030020B0030020FEB5044610460D46E3
:1001D000184373D0A6468C460020A41A01469D41C0
:1001E00067D36646002701243D46B61A9D4102D3D7
:1001F00013463A462124654676462F04360C3E4384
:100200002D0CB61A9D4104D3150C1B042B4312046C
:100210001034654676462F06360A3E432D0AB61A36
:100220009D4104D3150E1B022B4312020834654670
:1002300076462F0736093E432D09B61A9D4104D351
:10024000150F1B012B431201241D65467646AF078F
:10025000B6083E43AD08B61A9D4104D3950F9B00E6
:100260002B439200A41C65467646EF0776083E4372
:100270006D08B61A9D411AD392185B41641C16E0B2
:100280000018764665464941B71A9D410191009094
:1002900009D36046B11A98418E4684460098019968
:1002A0000025401C6941DD0752082A435B08641E93
:1002B000E6D57246634603B0F0BDFFE7204628430B
:1002C00007D00020C0430146C046C04622462B4608
:1002D000F1E700200146F7E70FB41CB5074B06AA6B
:1002E0007B4469460090059800F031FC0020694687
:1002F00000F040FC1CBC08BC04B01847910800008A
:1003000070B5044685690068C10601D5302600E055
:100310002026C00707D070BD62683046A1689047AC
:10032000206A401C20626D1EF6D570BD70B5044673
:1003300085690078C00707D170BD6268A168202078
:100340009047206A401C20626D1EF6D570BD0000EB
:10035000F7B5002575291068009914A611D0C0467C
:10036000C046002802DA404211A608E00099096858
:100370008A0701D50FA602E0490704D50EA601257C
:1003800001E0C046C046009F0024243704E000F08E
:10039000F6FB30313955641C0028F8D12B46324623
:1003A0002146009800F075FBFEBD00000000000033
:1003B0002D0000002B00000020000000F3B50446D3
:1003C000002081B020622046E168884700287DD067
:1003D000252802D06268A16883E0454F00257F444C
:1003E0002046E16888472028064608DB312E06D2E1
:1003F000B81920380078002801D00543F0E7A80795
:1004000001D5042085430020E0610746A0612A2E23
:100410000AD0304603F08AFD002827D0B800001922
:10042000303E0090866119E00298BA00121902C8A5
:10043000916102902046E1688847012F064617D156
:10044000E06900281FDA202085431CE000980A217B
:100450008069484300998019303888612046E168F6
:100460008847064603F062FD0028EFD1012F0AD02D
:100470002E2E08D12046E1688847064620200543F5
:100480007F1C022FC3DBA069002803DA4042A06171
:1004900001200543E80701D010208543002E24D019
:1004A00030464138192803D80120C00205432036C0
:1004B000204625603146029A1546FFF74DFE00287A
:1004C0000CD0012807D0ED1DE80800E00DE0C000C9
:1004D0000830029077E72D1D029574E76268304678
:1004E000A1689047206A401C6CE7206AFEBD0000AE
:1004F0000E3E000030B5441C03E00178401C00298A
:100500000DD08107F9D10B4BDD0104C8D11A9143FD
:100510002940FAD0001B0A0603D0C01E30BD001BC4
:1005200030BD0A0401D0801E30BD0902FCD0401E3F
:1005300030BD00000101010101E004C0091F0429D0
:10054000FBD28B0701D50280801CC90700D0027046
:10055000704700290BD0C30702D00270401C491E0F
:10056000022904D3830702D50280801C891EE3E799
:100570000022EEE70022DFE7704770477047000077
:1005800030B50346CA02400D1043164D164C0A15ED
:1005900002D02043002A06DBAA1A002A12DDD0402E
:1005A000FF2A0BDC30BD5205520D01D1400040083E
:1005B000AA1A07D4D0404042FF2A01DD002030BDF6
:1005C0000028FCDD4A00002B01D0012000E00020C3
:1005D000101801225205D042F0D8C817C04360401D
:1005E00030BD00001E04000000000080F0B58B4C00
:1005F0000F09254689B0BD437BD01D092646AE4371
:10060000FAD00E465E402740F60F3E43254071D09B
:1006100024012142FBD0FF24AD19A4042D1B039516
:1006200001252D05DB02DB0AC9022B43C90A294338
:100630001E010901040F130F050121431701880B47
:10064000820391432D098C46A90B1E438A039543CF
:10065000B30B9A0396433F09BA0B9403A743029640
:100660002E467E430497B6464E19D7190C4601967E
:10067000544305977E43371B7646BF1B3601B6466B
:10068000BE0B361900967646BC043719009C01D380
:10069000641C00946400002F01D001263443029EA4
:1006A000049F754366467E430496760034196E00B7
:1006B00034190094029C019E1C196643751BAE46BA
:1006C000069465464519059C05956C435943754646
:1006D0000891691A0191049E01465143A41B04919B
:1006E000611A009C0791E10605D0610901221143BE
:1006F00002E072E06EE06109089D00272C0A2D06D9
:100700006918049D7C412A0A2D066918019D6241E1
:10071000AC0DAD026D185441079A910D9202551916
:100720006141029A644658435443069B059A5A43D2
:10073000121A131B9A0E9B015B187A41010B0005DC
:10074000C3185141220A200644195A419A4200D244
:10075000491C01204002814203D315230226F6439F
:1007600002E014230326F6432020C51AA9401746A9
:10077000AF40DA400A4320460399D8400914731861
:1007800019055118039A3843D2075140AC4009D09B
:100790000122944006D30022401C5141002C01D17B
:1007A000400840001E4A934212D301220398920649
:1007B000904207DB0520400709181A480143C01280
:1007C000414004E0032040070818C10FC90700207A
:1007D00009B0F0BD0020F107FAE705180C464C41BE
:1007E00011486D42A04115D394181A465A410E483B
:1007F000644290410ED301204A004005824209D351
:100800005A00824206D35940C90F084AC90700203E
:100810001143DDE700200649DAE700000000FF078A
:10082000FE070000FFFFFF7F0000E0FF0000F07FF9
:100830000000F87F0121C9050123411842001B0671
:10084000D3185B0E0AD0C1100722D20689184007C0
:100850005242D14201D5520089187047090208D589
:100860000146002A03D0C10FC90700207047104677
:100870007047420202D00020024970470721090553
:100880000143F4E70000F87FF0B5FF252D04C60909
:10089000C209FF2704462E400137CB093E4348409A
:1008A0002A402B400746002A6BD0002B69D0AA4271
:1008B00067D0AB4265D0002800DA32460125ED054D
:1008C00029432C4309022002090AD21A4B0C7F2427
:1008D000E31A434C000A7C44E35C7D24240412198F
:1008E00014145B00A218884201D3521C00E040009F
:1008F00049420C465C4324115C43DB016415E31858
:10090000040A5C43C502200D0C4644436419250AC1
:100910005D432303EC0C0D46654300030019EB18FF
:100920004C42A34201D35B18401CD4052018002B75
:1009300007D05B00C91804D3401C002901D140082E
:1009400040003F2189048A4209D3002A08DC1106AD
:10095000090F04D0032149074018C00FC007F0BD9C
:1009600001224100120689187F2252069142F6D2D6
:1009700005214907C84201D59010F0BDFF20C005F0
:10098000F0BD002F00DA32461648AA4207D2AB4229
:1009900005D21902090E17D0F80FC007F0BDFF25C8
:1009A00063002D06AB42F9D84900A942F6D8AB4204
:1009B00001D1A942F2D0A94201D1002101E0610098
:1009C0004908D0050843F0BD1102090EFBD0FF20F5
:1009D0000243D005F0BD0A460146104654E7000028
:1009E000273900000000C07F10B501469E24000298
:1009F000CA15A307002A02D01843002A04DBA21A52
:100A0000002A0CDDD04010BD1206120E01D14000AC
:100A10004008A21A03D4D04040420028F3DDFF2250
:100A200048001206904201D9002010BDC817C043EB
:100A3000584010BD1F22030C02D10F2200041CD00D
:100A4000030E01D10002083A030F01D10001121F69
:100A5000830F01D18000921E002801DB4000521E4E
:100A6000D2055118021251181922904004D3491C82
:100A7000002801D14908490008467047C10FC9073D
:100A800000D04042012292071143D3E70121890798
:100A9000D0E7FFB504460D4681B0243000902168B0
:100AA000880604D51022E0699143216000E001200E
:100AB000A84201DD471B00E000270498A1697A19CC
:100AC0001018081AA0612078C00602D42046FFF74B
:100AD00017FC002608E003986268A168805D9047D3
:100AE000206A401C761C206204988642F3DB207842
:100AF000C0060AD52046FFF703FC06E06268A1683D
:100B000030209047206A401C206238467F1E002813
:100B1000F4DC07E000986268A168405D9047206AB5
:100B2000401C206228466D1E0028F3DC2046FFF79B
:100B3000FDFB2078000602D5022005B0F0BD0120A3
:100B4000FBE7000001694A1C02610878704700B5A4
:100B50008FB00291002105910549019379440391D9
:100B6000114604906846FFF729FC0FB000BD000055
:100B7000E5FFFFFF0A681070521C0A6070470146CB
:100B80008008081A02091018020A1018020C10181E
:100B9000C008820012185200891A01E0401C0A396C
:100BA0000A29FBD27047000010B5FF231B06440042
:100BB0009C421DD84C009C421AD80346124A0B4353
:100BC00007D4401A02D3EFF3008010BDEFF300808A
:100BD00010BD081A03D3EFF30080904305E0EFF354
:100BE000008001219043C907084380F3008810BDAD
:100BF0000D231B041A4204D01146002000F02DF8EA
:100C000010BD00F041F810BD00000090754600F0E6
:100C100043F8AE46050069465346C008C000854605
:100C200018B020B5FFF7BEFA60BCB6460026002714
:100C3000C0C5C0C5C0C5C0C5C0C5C0C5C0C5C0C58C
:100C4000403D490849008D46704710B50446C046EE
:100C5000C0462046FFF795FA10BDC80212D54803DA
:100C6000400F002804D0C803C043012188407047CA
:100C7000EFF300800001000903210907084380F316
:100C8000008870470020704710B5024800F008F84F
:100C900010BD00000000C07F004870471000002019
:100CA00010B50C461107090F092904D00A290AD0EA
:100CB00008290CD104E011460820FFF7CEFF06E01A
:100CC000510606D501E0510601D50120C007214695
:100CD00010BDD10607D501010909CC084907000E4E
:100CE0000006044309E0410F20024907000A0143BE
:100CF000200E00061D22D14101430846E7E700000F
:100D000001491820ABBEFEE7260002007047000034
:100D100070B582B004460068816803220A40012A47
:100D200002D10168C9074AD18168284A114208D016
:100D3000606D102101436165A16D01200143A16532
:100D40003BE0816801220A43826066480068664988
:100D500002F0D0FF01900198002817D00198401EA2
:100D600001900198002811D00198401E019001982F
:100D700000280BD00198401E01900198002805D052
:100D80000198401E019001980028E7D100F0C8FBAF
:100D90000546206801680020C9070ED1064602E01A
:100DA0000068C0070ED100F0BBFB411B20680B2977
:100DB000F6D30168C907F3D1BAE702B070BD0020CD
:100DC00002B070BD304602B070BDC0461700008052
:100DD000F0B583B05022825C012A02D1022003B018
:100DE000F0BD04465034026893685B0719D40F685D
:100DF0004B683A4838400126310401917104009152
:100E0000B104374DAB4215D1936A834393620F42CD
:100E1000A44D23D10098074227D1019807422BD136
:100E20002EE0416D20220A434265012000212170FD
:100E300003B0F0BD936A034393620F42994D24D1EE
:100E40000098074203D0B005296801432960019842
:100E5000074215D031062868084310E0F0052968DC
:100E60008143296000980742D7D0B00529688143A3
:100E700029600198074203D031062868884328601A
:100E800000200021217003B0F0BDF0052968014366
:100E9000296014480068144902F02CFF0A214143DC
:100EA000029102980028CBD00298401E029002982E
:100EB0000028C5D00298401E029002980028BFD09A
:100EC0000298401E029002980028B9D00298401E55
:100ED000029002980028E7D1B2E7C046FFFF070062
:100EE000011000000800002040420F000068006C64
:100EF00070470000F0B583B0012400283AD00646C0
:100F00005036416D002903D0416DC9060AD52BE04A
:100F1000002131708165054600F0CCF82846416D0E
:100F2000C90621D401688A6852071DD48122520063
:100F3000436D93439A1C42658A6803252A40594CA5
:100F4000012A02D10A68D2072AD142680126F7078E
:100F5000554BBA4205D0B607B24202D0AD07AA42FD
:100F60000BD10D4610350DE000213170416D10227E
:100F70000A434265204603B0F0BD0D691D400D6176
:100F80004A4B25462E681E402E602B6813432B606B
:100F9000CA6818239A43CA608268CB681343CB603F
:100FA00003462033012255062668AE432660456B72
:100FB0006D0626682E4326608C68E40003D414076F
:100FC0008D6825438D600292CC68394D2540CD60F7
:100FD0000469A41E65426541AC00C66826431D78BD
:100FE0006C033443066B26431C7B640034438669E0
:100FF000C769B6032643FC033443CE682643CE605C
:10100000476A0E460C36FF240194C234A74216D11B
:101010005A78012A029F1BD00B69C26B012A29D181
:10102000019A920093430B61044640341CCC134355
:1010300023430A691A430A610B693B431EE0346883
:10104000826A22433A4332605A78012A029FE3D1EE
:10105000002D07D0426D20231343436506465836C2
:101060003B4600E03B0432681A4332600B69C26BB6
:10107000012AD5D0DA0702D00B69BB430B614A695C
:1010800007239A434A61826B4B6913434B610024E7
:101090008465416D3943022291434165204603B086
:1010A000F0BDC04608270140FFFFFF3FFFFFC3FF21
:1010B0001902FEFF10B586B000210591049103913D
:1010C0000291019100680F4A904201D006B010BD14
:1010D000012042020C4B9C6814439C601A68024336
:1010E0001A601A68024000920391032002901320B4
:1010F000019005200007009901A900F043F906B00E
:1011000010BDC046002401402C100240F0B581B053
:101110000D460446014650314069082802D100912D
:10112000082705E02068C068C00767D100910C2738
:1011300000F0F6F906462168086838421ED0012002
:101140004202636D13436365CA681205920F67D14B
:10115000224620321278002A62D10A6812075FD52F
:101160008A68520753D4224654324B680C25AB434D
:101170004B60FF2502351368AB434FE0681C39D044
:10118000002D1BD10868384221D008683842D6D1DA
:10119000086838421BD008683842D0D10868384205
:1011A00015D008683842CAD1086838420FD008689C
:1011B0003842E7D0C3E708683842C0D100F0B0F940
:1011C000801B2168A842F6D908683842F3D1002074
:1011D00000990870606D042101436165032001B02E
:1011E000F0BD08683842AAD108683842A7D108681B
:1011F0003842A4D108683842F3D0A0E70020087034
:10120000606D202101436165012001B0F0BD626D78
:1012100020231343636522465832A36D03431360B2
:10122000A2690020002A01D001B0F0BD0C220A60A2
:1012300001B0F0BD70B501688A680221520713D46D
:101240005022825C012A0FD00546503501212970B9
:10125000C269012A0AD004460E46FFF759FD02462C
:1012600031462046002A01D0084670BD416D094A2A
:101270000A40012109025118416500218165006879
:101280001C2202602970826804231343836008468D
:1012900070BDC046FEF0FFFFF0B581B0044650209F
:1012A000205C012802D1022001B0F0BD2646503654
:1012B000012737702068816849070ED482680321AE
:1012C0000A40012A02D10268D20721D1FF20023050
:1012D000616D8143543400203BE08168490706D5A5
:1012E0008168890703D4816810220A43826000F074
:1012F00017F90546206881684907DFD500F010F925
:10130000411B20680B29F6D381684907F3D519E002
:10131000826805231340012B14D1826802231343F2
:101320008360016000F0FCF8054620688068C00713
:10133000CCD000F0F5F8411B20680B29F6D381686A
:10134000C907F3D0606D102101436165A16D583468
:101350003846002232703943216001B0F0BD0000F0
:10136000B0B5044600F0DCF80546601C02D0044825
:101370000078241800F0D4F8401BA042FAD3B0BD86
:1013800000000020F0B58AB007900B68002B00D158
:10139000B3E00E465A480799814201D0062000E08A
:1013A00005200B210907079A52180A21CA41019208
:1013B000052A00D30190079820300090002215469E
:1013C0001746029619460BE021434E4801607F1CE8
:1013D00031680846F840121DAD1C002800D18CE091
:1013E00001231846B8400140F1D0059306920391BD
:1013F000324603263146A9400495CD4351680C4638
:101400003440631E012B0895099110D807998B6809
:101410002B40D668049DAE401E438E60099AD306C9
:10142000DB0FBB404E6886431E434E6006E0032C34
:10143000049D03D13446029E069A1DE00799C868B0
:10144000089A1040029EB368AB400343CB60022C65
:10145000069A11D11C2010400F218140FB089B00EF
:10146000009AD4588C43316981402143D150069A67
:101470007068032409900440AC4007990868089BF1
:1014800018402043086009988003800F059B9ED078
:101490001D490868184308600C2010400F21814046
:1014A00003233C469C43194BE3588B4301998140ED
:1014B000194316482150134881687068C30202D549
:1014C000039C214301E0039CA1430E4B9960D96822
:1014D000830201D5214300E0A1430A4BD96059683A
:1014E000830301D5214300E0A143064B59601968ED
:1014F000C00300D568E7A14367E70AB0F0BDC04666
:10150000001C00500004014034100240080001405B
:10151000002A02D01822815070472822815070473B
:10152000E04800687047C046B0B502460346403305
:101530005C780220202C17D11C78012C14D0242098
:101540005870106802680124A243026022030568F3
:101550009543056002680A43026001682143016007
:101560000020187020215970B0BDB0B50246034666
:1015700040335C780220202C17D11C78012C14D029
:1015800024205870106802680124A24302600F22D0
:10159000120205689543090229430160016821434D
:1015A00001600020187020215970B0BDF0B581B0E5
:1015B000002822D0054640356978002905D1002150
:1015C0002970044600F034F920462421697001682E
:1015D0000B68012293430B600F231B0644689C4356
:1015E0000C618C681C4B1C408C608468C668012EA2
:1015F00006D1D60334438C600CE0012001B0F0BD6D
:101600002127BF023C438C60022E03D1D4024E68D6
:10161000264302E0D4024E68A6434E604C680F4E4B
:1016200026434E60CC681C40CC60036944691C436F
:1016300083691B022343CB60C369046A1C430C60AB
:101640000B6813430B600021416420226A70016320
:101650000846A97001B0F0BDFF7FFFFF00800002C7
:10166000F0B587B005460446403466780220202E47
:1016700000D0B8E02678012E00D1B4E004930392A4
:101680000691012005902070FFF74AFF0746286861
:101690008169090418D4212161701021A1700021F1
:1016A0006964049A6A85039A6A62029169630121F6
:1016B00005914E06698D090A584A049621D0FF23E8
:1016C0002B850126360620E00598C60302E08169D5
:1016D0003142E0D0192128463A4600F0C9FF0028DF
:1016E00076D1FFF71DFFC11B28681A29EFD3816946
:1016F0003142ECD0686C202108436864617001209D
:101700007CE06B8D2B85002B7DD0039A1178816254
:10171000698D491E6985511C404A6962591E298597
:1017200006991140DBB21B045918314343683C4E03
:1017300033400B4301214903194341600C9E688DDE
:10174000002848D00698104006900499014304915F
:101750000EE0688D288529684A68324B1A40C0B26D
:101760000004049B184310434860688D002832D061
:10177000284631463A4601F0F9F8002828D1286871
:10178000696A0A788262688D401E6885481C6862B2
:10179000288D401E2885698D0029E6D00004E4D1FB
:1017A0000097802100222846334601F01FF80028C8
:1017B0000ED1688D000ACCD0FF20288528684168AA
:1017C000184A1140069A1143174A11434160CCE769
:1017D000059807B0F0BD284631463A4601F083F837
:1017E0000028059801D007B0F0BD28682021C1610C
:1017F00042680E4B134043606170029800212170D3
:10180000A17007B0F0BD069911404368044E334003
:101810000B4304990B4305998DE7C046FF03000075
:10182000009800FC009C00FC0000FF0100E800FEA6
:1018300010B586B0002105910491039102910191A8
:101840000068114A904201D006B010BD0F4C2068CC
:101850000222104320602068104000900420059070
:10186000039112200290032004900002019000983E
:10187000074801A9FFF786FD01204005E168014303
:10188000E16006B010BDC046005400402C1002407C
:10189000000400501D48007802490A6810180860CA
:1018A0007047C046AC01002010B5084801684022CE
:1018B0000A4302600024204600F00AF8002801D004
:1018C000012010BD00F026F8204610BD0020024087
:1018D00070B504467D20C0000C4E317802F00AFA43
:1018E00001460B48006802F005FA00F077FD01257B
:1018F000032C08D8002806D10025E84321462A46B3
:1019000000F014F87460284670BDC0460000002046
:1019100008000020044801680122114301601107FA
:1019200042680A434260704734100240002805D4E0
:101930000322034693430A4A9A1803E00C2202400A
:10194000064BD2188007C00E8901C9B28140FF231F
:1019500083401068984308431060704714ED00E01E
:1019600000E400E0F0B589B0066801252F02EA0224
:1019700011462031874B0E427CD0059208902907F2
:10198000143B18680840049002D118680843186096
:1019900001930291804C2068384211D1206838436D
:1019A0002060FFF7BDFD06462068384208D1FFF7EA
:1019B000B7FD801B6428F7D90325284609B0F0BD80
:1019C0000326340573484C38069001682140089B73
:1019D00058680246039422400096340491420AD18A
:1019E00002462240A242069E0DD19A68039B1A40ED
:1019F000914205D107E001462140A142069E02D155
:101A000031688903D9D4634B59680794214021D0A8
:101A1000079A1040814203D00898007880060AD4C3
:101A200008988068079A1040814213D0089800688F
:101A3000059908420ED05868E9045A680A435A606A
:101A40005A688A435A600146079A9143596038425E
:101A500000D08CE00898066805990E42079C59D181
:101A6000B1066DD40499002904D1019C2168029A21
:101A700091432160F1070DD1B10713D4710719D437
:101A8000310720D43E4227D171062ED400253106DD
:101A900093D535E0196803229143C2680A431A605E
:101AA000B107EBD519680C22914302690A431A6009
:101AB0007107E5D5032189021A688A4341691143F8
:101AC00019603107DED5032109031A688A43816949
:101AD000114319603E42D7D0032109041A688A4392
:101AE000C169114319607106D0D5012189061A68B0
:101AF0008A43416A114319600025310600D45CE72E
:101B000003218A0419689143006A08431860284633
:101B100009B0F0BD826811462140A1420BD1039863
:101B2000024003231B05069D2C689C43194B089813
:101B300014432C60079C5A680A435A60B10691D539
:101B4000426811462140A1420AD103980240032372
:101B50001B05069D2C689C430E4B089814432C6073
:101B60005A680A435A600499002983D17DE7FFF738
:101B7000D7FC0546884C074B5868800500D569E7B7
:101B8000FFF7CEFC401BA042F5D9009D284609B0C6
:101B9000F0BDC0464C10024000700040F0B583B06C
:101BA000002846D00E4602907A4800680121019133
:101BB0000840864216D9774908680125A843304372
:101BC0000860754CFFF7ACFC074672480068284077
:101BD000B04207D0FFF7A4FCC01BA042F5D90320F8
:101BE00003B0F0BD029D28688107794C05D52168B6
:101BF000F0229143AA680A432260C0071CD16548BD
:101C0000006801273840864224D262490868B843F8
:101C10000860614CFFF784FC05465E480068C00719
:101C200018D0FFF77DFC401BA042F6D9032003B07B
:101C3000F0BD012003B0F0BD6A6821460C39096887
:101C4000012A34D0032A2DD0022A72D189030198A7
:101C50002BD52FE0029B186841075D4C06D5072164
:101C6000090222688A43D96811432160000707D519
:101C70000720C002216881431869C0000843206022
:101C800021680807820F6E487A44127952009744FF
:101C90000154735B38042146083909680904490F67
:101CA000884069E08901019804D403B0F0BD490778
:101CB0000198FAD5216803200190814311432160E6
:101CC000FFF72EFC07466868334D03282BD0022807
:101CD0001ED001280AD120680C21014004298ED091
:101CE000FFF71EFCC01BA842F5D909E020680007D9
:101CF000800F00D183E7FFF713FCC01BA842F5D982
:101D0000019803B0F0BDFFF70BFCC01BA842F7D849
:101D100020680C2101400829F5D170E7FFF700FC8D
:101D2000C01BA842ECD820680C2101400C29F5D139
:101D300065E789050198B8D5BCE720460C380068EE
:101D4000C00612D5414817E08A02120F3D4B9A5C3B
:101D50000902890F491C2368DB0309D420460C388B
:101D60000068C00603D5394802E0374804E0364829
:101D70004243104601F0BEFF21680906090F074AD9
:101D8000515CC8401149086005480068FFF7A0FD94
:101D900003B0F0BD0020024088130000414200085B
:101DA0000400002009480068094909684905490FED
:101DB000084A515CC84070470448006804490968F3
:101DC0008904490F034A515CC8407047080000204D
:101DD0000C1002405142000810B5844BD968080726
:101DE000820F17487A441279520097440108070D70
:101DF0000120000459680904490F884010BD186883
:101E0000C00614D5114810BD8A02120F0D4CA25CF9
:101E10000902890F491CDC68E40303D41868C00672
:101E200007D50A484243104601F064FF10BD06483A
:101E300010BD05484243104601F05CFF10BDC0468E
:101E400000127A00594200080024F40000093D0005
:101E5000F0B589B0002855D0644EF1680C220A40D4
:101E60000692012105910904F76804910F4007903B
:101E70000078C00710D00698082806D006980C28CD
:101E800000D0D5E0002F00D1D2E03068800303D528
:101E900007984068002850D0079B1878800734D4F2
:101EA0001878C0064CD407980078000766D40799C4
:101EB0000878400700D59BE00878800600D51EE131
:101EC0000798846A002C1AD006980C2800D067E185
:101ED000012C32D0F068049A0240079BD96A8A42EA
:101EE0002BD10F21890401401A6B914225D1032186
:101EF00089050840596B8842059800D057E20020B8
:101F000009B0F0BD012009B0F0BDD868810604D544
:101F1000316820221143316090430699042906D08C
:101F200006990C2900D0A9E0002F00D0A6E0316866
:101F300000283AD10422114037D0059809B0F0BDED
:101F4000012044020699002900D1ADE03168079ACA
:101F5000D2690002002A00D101E101433160FFF79C
:101F6000DFFA05463068204200D008E1FFF7D8FAD2
:101F7000401B0228F6D9032009B0F0BD306D079947
:101F80004969002900D1D9E0012108433065FFF7F4
:101F9000C7FA0546306D800789D4FFF7C1FA401BA8
:101FA0000228F7D9032009B0F0BD1F210902726889
:101FB0008A4319690902114371603168092291430A
:101FC00001433160F1680807820FFA485200C046A9
:101FD0007A4492885200974403002401DA013B01BD
:101FE00070680004410F04988840D0E1001002405E
:101FF00001221107B06B0840029002D1B06B084378
:10200000B063019103921402F14F3868C00523D4E4
:10201000386820433860FFF783FA05463868204265
:102020001AD1FFF77DFA411B03206429F6D9BEE1DE
:10203000306807994968049A914209D00522120430
:10204000914200D0CDE005998904084330603068A2
:10205000049908433060D3E007988168306D039B92
:102060005F02002900D12BE105221202914200D12A
:1020700020E1A14200D037E120433AE13168002855
:1020800000D1D3E00922914301433160FFF748FAC0
:1020900005463068400700D502E1FFF741FA411BD1
:1020A00003200229F5D982E13168214204D0079941
:1020B000C969002900D17AE1072040037168814392
:1020C000079B586A01437160FF21090672688A43C1
:1020D000196A090689187160400B04998140F068FB
:1020E0000006000FB74A105CC140B7480160B7480E
:1020F0000068FFF7EDFB002800D058E1D3E6B06898
:1021000007998969002900D1B4E001210843B06032
:10211000706B084370634803AF490A6802430A6062
:10212000FFF7FEF90546B068800700D5C8E6FFF75F
:10213000F7F9411B03200229F5D938E10121884331
:102140003065FFF7EDF90546306D800700D4AEE647
:10215000FFF7E6F9411B03200229F5D927E1814366
:102160003160FFF7DDF905463068204200D19AE67C
:10217000FFF7D6F9411B03200229F5D917E1072003
:10218000400371688143079A506A08437060FF20DA
:10219000000671688143106A00064018706082E68C
:1021A0000120010632688A4332604706FFF7B8F91A
:1021B0000546022C0AD13068384200D1C4E0FFF74E
:1021C000AFF9411B03200229F5D9F0E0306838420D
:1021D00000D194E6FFF7A4F9411B03200229F5D9A9
:1021E000E5E0049A90433060306810400890089809
:1021F00005988004326882433260002900D193E060
:1022000005984404FFF78CF905463068204200D059
:1022100042E6FFF785F9401B6428F6D9032009B090
:10222000F0BD3068C0067DD56548B0E0012081432F
:102230003160FFF775F9054630684007079B00D409
:102240002EE6FFF76DF9411B03200229F4D9AEE019
:102250008A02120F584B9A5C0902890F491CF368D5
:10226000049C234200D08EE03068C00600D489E090
:10227000534888E001218843B060480356490A6802
:1022800082430A60FFF74CF90546B068800700D426
:1022900016E6FFF745F9411B03200229F5D986E030
:1022A0001F20000271688143079B186900020843E0
:1022B0007060F5E5990208433065306D204318E001
:1022C000A04330659802316D81433165FFF728F9ED
:1022D0000546404C306D38421AD0FFF721F9411BBA
:1022E0000320A142F6D962E0A04330659902306D27
:1022F00088433065FFF714F90546364C306D384297
:1023000006D1FFF70DF9411B0320A142F6D94EE09B
:1023100002980028079900D0CEE5B06B019A90434F
:10232000B063C9E5254832E005984404FFF7F8F8A2
:1023300005463068204200D1AEE5FFF7F1F8411BB9
:1023400003206429F5D932E0FD200004F1688143BF
:10235000079B2C330DCB084310431843F0602948EA
:10236000401C316801433160FFF7DAF804463068F9
:10237000384200D0C3E5FFF7D3F8011B0320022940
:10238000F5D914E00D484243104601F0B3FCF16862
:102390000906090F0B4A515CC8400B4908600B48FD
:1023A0000068FFF795FA0028079B00D178E509B08F
:1023B000F0BDC04600127A00594200080024F40023
:1023C00000093D00414200080800002004000020F0
:1023D000007000408813000020000140401E010EE4
:1023E00001D0012070470749074A50600748036839
:1023F0000B400321890759180160002090600721D4
:1024000011607047FFFFFF0010E000E020ED00E0EA
:10241000B0B500281DD00446C06F002805D1782033
:1024200000212154204600F02BF82420E06720688A
:1024300001680125A9430160606A002802D0204696
:1024400000F0EFFA204600F0BDFB002803D028463C
:10245000B0BD0120B0BD0920C00221684A68824396
:102460004A6088682A2290438860086801220243F3
:102470000A60204600F03EFB05462846B0BD00003D
:1024800010B586B00021059104910391029101914C
:102490000068114A904201D006B010BD01204204EC
:1024A0000E4BDC681443DC601A6802431A601A6839
:1024B0000240009204200590032004900391022022
:1024C00002900C20019005200007009901A9FEF759
:1024D00059FF06B010BDC046004400402C10024019
:1024E000F0B585B00446C06F202810D10120002926
:1024F0000BD0002A09D001200503A668AE4209D1FD
:10250000CE0707D02669002E04D105B0F0BD022009
:1025100005B0F0BD01930291274650372046843024
:102520000021039101602120E0671646FEF7F8FFC5
:1025300004907E803E80A068A84202D120690028D5
:102540005ED0029D019E039A2168788800285ED0A3
:10255000701C454B2ED0002E49D00392C86900064E
:1025600008D4FEF7DDFF0499401AB04266D821680E
:102570000868F3E7002D03D0287888626D1C07E017
:10258000039A1088384B18408862921C03920025E9
:102590007888401E788078880028DFD137E010885E
:1025A00018408862921C00257888401E78807888C0
:1025B00000282CD0C869000608D4C869000605D4D4
:1025C000C869000602D4C8690006F3D5002DE6D01C
:1025D000287888626D1CE7E7108818408862921C92
:1025E00000257888401E7880788800280FD0C86938
:1025F000000621D5002DEFD0287888626D1CF0E709
:102600000025029A019E216878880028A0D1CA6915
:102610000020520613D4002E0ED0721C13D1CA69AA
:1026200052060CD4CA69520609D4CA69520606D4A5
:10263000CA695206F3D502E0FEF772FF032020219B
:10264000E16705B0F0BD0546FEF76AFF0499401A40
:10265000B042F3D820680168C0694006F4D5284626
:102660002021E16705B0F0BDFF010000FEE700009A
:10267000F0B585B00E46044640300490206881696C
:10268000C90606D400210F4601258269D30543D42B
:1026900046E01021C1618169890635D4711C30D0B2
:1026A00015460120002E6AD186030390C703FEF76A
:1026B00037FF206842680499897883693B4209D0D2
:1026C000324007D1202905D0416831434160FEF7EF
:1026D00027FF054620688169890605D4FEF720FF9B
:1026E000401B1A28F6D375E081698906DFD50BE017
:1026F0008169890608D48169890605D481698906BA
:1027000002D481698906F3D52021C1610127042102
:1027100001258269D30503D52B02C36129432F46C6
:102720006B02560506D41A420AD1002F0BD10020A5
:1027300005B0F0BDAD02C561082529431A4202D09B
:10274000C361022211438269920701D5002282628D
:102750008269D20703D182690123134383614268EE
:10276000214B13404360606C08436064202004994F
:102770004870002008708870012005B0F0BD81030A
:1027800002910390C0030190019F02E081698906D4
:10279000BAD4FEF7C5FE411B2068B142F6D94268A3
:1027A0000499897883693B420BD0029B1A4008D177
:1027B000202906D04168029A11434160FEF7B0FE1D
:1027C0000546206881698906E0D4FEF7A9FE401B12
:1027D0001A28F6D3206881692421039F0125826984
:1027E000D30599D49CE7C04600E800FEF0B585B05B
:1027F0000D460446006880690840401A4142414144
:10280000002604928A4223D11F460A9A581C03923A
:102810002BD0002F029433D1002620463146FFF7FB
:1028200027FF002828D1FEF77BFE20688169294018
:10283000491B4A424A4104999142039A44D0806913
:102840002840401B4142414104988842029CE3D009
:10285000304605B0F0BD206880692840401B4142E9
:10286000414104988842039AF2D10026F143204660
:10287000FFF7FEFE0028EED00126304605B0F0BD81
:10288000019507E080692840401B4142414104987E
:102890008842DDD13446029E304639461546FFF760
:1028A000E7FE0028E8D1FEF73BFE411B3068B94245
:1028B0002A462646019DE5D981692940491B4B429C
:1028C0004B4104999942DDD1029B18464030596C26
:1028D0002022114359644270002101708170012649
:1028E000304605B0F0BDF0B581B00546006880699E
:1028F0000024800622D416460F46002903D129E081
:10290000806980061AD4284639463246FFF7B0FE61
:10291000002827D1FEF704FE811B2868B942EFD9B1
:1029200081698906ECD428464030696C2022114325
:10293000696442700021017081700124204601B059
:10294000F0BDFEF7EDFD286881698906EBD5806949
:102950008006F3D40024284621463246FFF788FE3D
:102960000028EED00124204601B0F0BDF0B581B0C2
:102970000546006880690024800716D416460F4675
:10298000481C19D0002F26D1002428462146324663
:10299000FFF76EFE002838D1FEF7C2FD2868816976
:1029A000890728D580698007EED5204601B0F0BDA3
:1029B000286880698007F8D40024E143284632461D
:1029C000FFF756FE0028F3D00124204601B0F0BDE9
:1029D00080698007E9D4284639463246FFF748FE29
:1029E000002812D1FEF79CFD811B2868B942EFD95F
:1029F00081698907ECD428464030696C2022114354
:102A0000696442700021017081700124204601B088
:102A1000F0BDFEE77047704780B5FEF73BFF80BD15
:102A20007047B0B5416A0A070CD4CA0714D18A07A7
:102A30001CD44A0724D4CA062CD48A0634D44A06A5
:102A40003CD44CE00122D20303685C689443426B9F
:102A500022435A60CA07EAD00122520403685C6824
:102A60009443826A22435A608A07E2D50122120403
:102A700003685C689443C26A22435A604A07DAD505
:102A80000122920403685C689443026B22435A60FB
:102A9000CA06D2D50122120303689C689443826B54
:102AA00022439A608A06CAD50122520303689C68B1
:102AB0009443C26B22439A604A0610D50122130543
:102AC000026854689C43056C2C4354609D4206D1B7
:102AD00003235B0554689C43436C234353600906FE
:102AE00007D50121C904026853688B43806C1843E1
:102AF0005060B0BDF0B583B0044606467836002578
:102B0000F560FEF70DFD034620680168090721D531
:102B100002952B48009001256905002220461F469A
:102B200000F066F9002812D0EFF3108085F31088CA
:102B300021680A6880239A430A6080F31088032082
:102B400020227C21029D6250357003B0F0BD2068C8
:102B50003B46029D0068400726D519480090012792
:102B6000B9050022204600F043F900281CD0EFF3FD
:102B7000108087F3108809214901226813688B436C
:102B8000136080F31088EFF3108087F310882168BA
:102B90008A68BA438A6080F310880320202280214B
:102BA0006250357003B0F0BD2020E067B06025664C
:102BB00064212A4628466250357003B0F0BDC046F5
:102BC000FFFFFF01F0B581B0044601680868764A4E
:102BD0000240A06823690343606918431043E26917
:102BE00010430860032630034B688343E0681843B2
:102BF0004860A5696D4B994202D0206A284300E0E5
:102C000028460B252D028F68AF4307438F60684825
:102C1000814214DD0027674881421FD06648814207
:102C20001CD06648814243D16648C06C8007000FC3
:102C300066A52F580125E803994213D13DE060486D
:102C4000814205D0994233D15E48C06C000A01E050
:102C50005C48C06C0C2505405B4847590125E803DA
:102C600099422AD0824212D1082F00D996E0C0465C
:102C70007F443F797F00BF44043C4691529191913B
:102C80007300FFF78FF8002800D069E085E0082F77
:102C900000D983E07F443F797F00BF44042F3A7F0F
:102CA000457F7F7F7200FFF77DF8002869D174E0CF
:102CB00010270125E8039942D4D1082F6ED8C046C9
:102CC0007F443F797F00BF44046909690F696969DE
:102CD0003500FFF767F800282CD15EE0394800681E
:102CE000C00626D53E4825E0FFF776F8002821D11A
:102CF00053E0FFF761F8002832D14EE0FFF75CF8AF
:102D000000283ED149E02F480068C00627D5344846
:102D100026E02C480068C00632D5314831E0FFF784
:102D20005BF800281CD138E0FFF756F8002828D1BE
:102D300033E02A4862685643B0422FD311038842D9
:102D40002CD8010E56080002002380195941FDF7C6
:102D50003BFA25494118254A91421CD31EE01F48E1
:102D6000400061684A08101800F0C4FF0246103A9B
:102D70001C498A4212D201400007400F08430AE072
:102D8000164861684A08101800F0B4FF014610396F
:102D9000144A914202D22168C86000250020A06632
:102DA000E066284601B0F0BDF369FFEF004800403F
:102DB000FF4B0040004C00400050004000380140F4
:102DC000004400400010024064420008010000007E
:102DD0000400000002000000080000000024F400CD
:102DE00000093D00F0FF000000FDFFFF00FD0F00A7
:102DF000F0B585B01F4615460E460368D9693140C7
:102E0000891B4A424A410021954222D10A9C002C4A
:102E100022D00391611C24D1D9693140891B4A42D7
:102E20004A41954231D1D9693140891B4A424A41D0
:102E300095422AD1D9693140891B4A424A4195427B
:102E400023D1D9693140891B4A424A419542E3D096
:102E50001BE0084605B0F0BDFEF762FB032005B09D
:102E6000F0BD402E049001D0802E14D1FEF758FB07
:102E7000C01BA0420CD8049800680168C0693040AB
:102E8000801B414241418D42F0D0039805B0F0BD16
:102E9000032005B0F0BD7830019001200090C00201
:102EA000029006E0C8693040801B414241418D429A
:102EB000EBD1FEF735FBC11B0320A1423ED804999C
:102EC00009680A685207EDD5CA69120738D4CA6979
:102ED000029B1A42E6D0029A0A62EFF310820121A5
:102EE00081F3108809235B01049C246825689D43B5
:102EF000256082F31088EFF3108281F31088049B21
:102F00001B689C688C439C60049B82F310881A6E3B
:102F1000012A0BD1EFF3108281F3108819680B6836
:102F20001024A3430B60049B82F310882021019C92
:102F3000A16000221A669A662270E16005B0F0BDB9
:102F400008250D62EFF31081009880F310880922A4
:102F50005201049B1B681C6894431C6081F3108819
:102F6000EFF3108180F31088049A1268936883430A
:102F70009360049B81F31088196E01290CD1EFF343
:102F80001081012282F310881A6813681024A34369
:102F90001360049B81F310882021019A9160002125
:102FA000196699661170D56005B0F0BD80B582B024
:102FB00001AA1820D0701C209070082050700C209E
:102FC00010706420009081484E210423FEF748FBD6
:102FD0000220FEF7C5F902B080BDC046F0B58BB047
:102FE0003220FEF7BDF90AAA0826D6700C24947088
:102FF0003820049050703C20069010706425009595
:10300000029572484E21099104273B46FEF728FBA2
:103010000520FEF7A5F90AAAD670089494700498C2
:1030200050700698107000956848099D29463B46E7
:10303000FEF716FB01200790FEF792F90AAAD67058
:10304000059694700498507006981070029C009435
:103050005E4829463B46FEF703FB0A252846FEF755
:103060007FF90AAAD67008989070282006905070B0
:103070002C2616700094554809993B460397FEF795
:10308000EFFA2846FEF76CF90AAA8825D5708C2439
:103090009470069850701670029E00964B480999DD
:1030A0003B46FEF7DDFA079F3846FEF759F90AAAB4
:1030B000D5709470059C5470089D15700096434817
:1030C0000999039BFEF7CCFA3846FEF749F90AAA9C
:1030D0001820D0701C2090705470157000963B48DA
:1030E000099D2946039F3B46FEF7BAFA079C2046F6
:1030F000FEF736F92046FEF733F90AAA6820D070A9
:103100006C209070059C54700898107000962F48A1
:1031100029463B46FEF7A4FA0798FEF721F90AAACA
:10312000C820D070CC209070547008981070009611
:10313000264829463B46FEF793FA0BB0F0BDC04641
:1031400080B582B0012803D0002803D1802000E0A0
:10315000C020014308010346083301AAD3700C3094
:1031600090700F2081430846083050700C31117068
:103170006420009015484E210423FEF771FA02B036
:1031800080BDC046B0B582B0017800291BD0451C77
:103190000E4C08010346093301AAD3700D3090701C
:1031A0000F2081430846093050700D3111706420A2
:1031B00000904E2104232046FEF752FA681C29781D
:1031C00000290546E5D102B0B0BDC046740000201C
:1031D00000B5E1B0FEF768FB36AD38212846FDF7B3
:1031E000C9F900242D942C942B942A94299457A83F
:1031F0002821FDF7BFF903202190C0029A490A68EF
:10320000824301273D97F802101808604094052674
:1032100070033F903E94102036902846FEF718FE2B
:10322000002803D0EFF3108072B6FEE728962097AF
:103230002A940F2029902B942C942D9429A8214670
:10324000FEF7ACFC002803D0EFF3108072B6FEE767
:103250005D945B940A20579057A8FEF783FB0028E3
:1032600003D0EFF3108072B6FEE73A9439943894A5
:10327000379436947D480168042211430160016847
:10328000279211405791579901688022114301609C
:1032900001681140579157990168209D29430160A9
:1032A0000168294057915799016802221143016032
:1032B000006807921040579057986D482199224610
:1032C000FEF726F928980007289020263146224646
:1032D000FEF71EF9674829462246FEF719F9389489
:1032E0002120000437906803369036AF6048394695
:1032F000FEF748F8399438943795219836905C4811
:103300003946FEF73FF83994389437953696289821
:103310003946FEF737F8399438943795369555483D
:103320003946FEF72FF8544AC120C0005349516076
:103330001146083131C154619461D4611462546200
:10334000151D2846FEF732F9002803D0EFF3108050
:1033500072B6FEE7279E00212846FEF7E5F8002812
:1033600003D0EFF3108072B6FEE700242846214612
:10337000FEF7FBF8002803D0EFF3108072B6FEE7EB
:103380003F480C213F4A04624462E1235B021CC0B7
:10339000046044608160C46004610C38FFF738F851
:1033A000002803D0EFF3108072B6FEE72C213648D8
:1033B00044543649072284620463209D4563826336
:1033C000C463219A920716C00C3801460C3170C1B3
:1033D0008461C46129020184FF21C23141623794B2
:1033E0003694FDF787FD002803D0EFF3108072B606
:1033F000FEE7369528033790234836A9FDF7E8FC09
:10340000002803D0EFF3108072B6FEE72048369014
:103410001D4836A9FDF7DCFC002803D0EFF310802F
:1034200072B6FEE71B483690174836A9FDF7D0FC68
:10343000002803D0EFF3108072B6FEE7C820FDF736
:103440008FFFFFF7CBFDFFF7B1FD00201C90014679
:10345000FFF776FE10A0FFF795FE31A80830069022
:103460007D20C0001B901EE0007000402C10024028
:10347000000800500004005070000020005400407C
:103480002401002000440040C80000200024014026
:103490000200000410000010537665696B6921007A
:1034A0001B98FDF75DFF1C9F0698076047608760CB
:1034B000209D3295319531ACFB4E30462146FDF7CB
:1034C00061FF304629463A46FEF722F8219D3195A4
:1034D000F64E30462146FDF755FF304629463A461E
:1034E000FEF716F80520FDF73BFFF14C2046FDF7EF
:1034F000A1FE0A2720463946FDF708FE2046FDF7C3
:10350000F5FC24902046FDF795FE20463946FDF750
:10351000FDFD2046FDF7EAFC27902046FDF78AFED8
:1035200020463946FDF7F2FD2046FDF7DFFC2690E8
:103530002046FDF7B1FE2046FDF77CFE20463946C9
:10354000FDF7E4FD2046FDF7D1FC1F902046FDF776
:1035500071FE20463946FDF7D9FD2046FDF7C6FC31
:1035600025902046FDF766FE20463946FDF7CEFD44
:103570002046FDF7BBFC23902046FDF78DFE20463C
:10358000FDF758FE20463946FDF7C0FD2046FDF701
:10359000ADFC1D902046FDF74DFE20463946FDF757
:1035A000B5FD2046FDF7A2FC22902046FDF742FE25
:1035B00020463946FDF7AAFD2046FDF797FC1E90F0
:1035C0002046FDF769FE2046FDF734FE20463946C9
:1035D000FDF79CFD2046FDF789FC17902046FDF77E
:1035E00029FE20463946FDF791FD2046FDF77EFC79
:1035F0001A902046FDF71EFE20463946FDF786FD4F
:103600002046FDF773FC19902046FDF745FE204645
:10361000FDF710FE20463946FDF778FD2046FDF700
:1036200065FC14902046FDF705FE20463946FDF75F
:103630006DFD2046FDF75AFC18902046FDF7FAFD77
:1036400020463946FDF762FD2046FDF74FFC1690F7
:103650002046FDF721FE2046FDF7ECFD20463946C9
:10366000FDF754FD2046FDF741FC11902046FDF783
:10367000E1FD20463946FDF749FD2046FDF736FCC1
:1036800015902046FDF7D6FD20463946FDF73EFD54
:103690002046FDF72BFC13902046FDF7FDFD20464C
:1036A000FDF7C8FD20463946FDF730FD2046FDF701
:1036B0001DFC0E902046FDF7BDFD20463946FDF766
:1036C00025FD2046FDF712FC12902046FDF7B2FDC5
:1036D00020463946FDF71AFD2046FDF707FC1090FD
:1036E0002046FDF7D9FD2046FDF7A4FD20463946CA
:1036F000FDF70CFD2046FDF7F9FB0B902046FDF78A
:1037000099FD20463946FDF701FD2046FDF7EEFB09
:103710000F902046FDF78EFD20463946FDF7F6FC5A
:103720002046FDF7E3FB0D902046FDF7B5FD204652
:10373000FDF780FD20463946FDF7E8FC2046FDF701
:10374000D5FB06462046FDF775FD20463946FDF7B8
:10375000DDFC2046FDF7CAFB0C902046FDF76AFD14
:1037600020463946FDF7D2FC2046FDF7BFFB0A9004
:103770002046FDF791FD2046FDF75CFD20463946C9
:10378000FDF7C4FC2046FDF7B1FB05462046FDF7DA
:1037900051FD20463946FDF7B9FC2046FDF7A6FB52
:1037A00008902046FDF746FD204628973946FDF74C
:1037B000ADFC2046FDF79AFB09902046FDF76CFD15
:1037C00024981F9940181D9940181799401814996A
:1037D0004018119940180E9940180B9940188019FB
:1037E0004019FDF753F93349FDF74EF83249FDF71B
:1037F0004BF8324F394600F03BFC314900F038FCC1
:10380000304900F035FC04462F4900F084FB0546A2
:10381000401E85411D9420462C4900F071FB044652
:10382000401E84412C402698239940181E99401828
:103830001999401816994018139940181099401872
:103840000D9940180A9945182798259940182299EA
:1038500040181A994018189940181599401812994B
:1038600040180F9940180C99401808994018FDF716
:103870000DF9104E3146FDF707F80F49FDF704F832
:10388000394600F0F5FB0E4F394600F0F1FB1049C8
:1038900000F0EEFB1E9009982818FDF7F7F8314666
:1038A000FCF7F2FF044915E0000400500008005046
:1038B000C80000200000204100F07F453333534012
:1038C000000030411904763F00004040CDCC4C3E12
:1038D000EA04743FFCF7D8FFF24900F0C9FB39460F
:1038E00000F0C6FBF24900F0C3FB1F902794012CA7
:1038F00007D1002032900120319031A9E348FDF733
:1039000041FD1E9D2846E84900F005FB0446401E87
:1039100084412846E54900F0F3FA411E88412040E1
:1039200026900128D84D07D10020329002203190F6
:1039300031A92846FDF726FD1F9E3046DA4900F0E2
:10394000EAFA0446401E84413046D84900F0D8FACD
:103950000746401E87412740012F08D100203290A2
:103960000120319031A92846FDF70CFD05E027988C
:10397000269908433843012866D10520FDF7F0FC5D
:103980000020249023902590229703E02898401E41
:1039900028903FD0C04F3846FDF74CFC0A263846E9
:1039A0003146FDF7B3FB3846FDF7A0FA044638462A
:1039B000FDF740FC38463146FDF7A8FB3846FDF7D9
:1039C00095FA05463846FDF735FC38463146FDF791
:1039D0009DFB3846FDF78AFA06463846FDF75CFC43
:1039E0002798002806D126980028229F09D1002F69
:1039F000CCD00BE023980019239026980028229F12
:103A0000F5D0249840192490002FBFD02598801914
:103A10002590BBE72798002800D00DE126980028C4
:103A200000D01DE1002F0FD02598FDF72FF89B49FE
:103A3000FCF72AFF9A49FCF727FF9A4900F018FB88
:103A40009C4900F015FB1F901D9C2046974F39465E
:103A500000F04BFA0546401E2E4686412046394668
:103A600000F043FA0028079C00D1209C1E988F4943
:103A700000F051FA002800D126461E988B4900F02C
:103A80004AFA0446002D00D11D951D9F38461E9907
:103A900000F054FA2694002C00D1074638461F9DAA
:103AA000294600F04BFA04462846804900F01DFAEA
:103AB000002800D0761C1F987C4900F016FA0546B5
:103AC0003046FCF7E3FF0146002D00D13C4620467E
:103AD000FCF7DAFE0446002E00D134462046FCF7FF
:103AE00083FF2890FCF7CAFF0146204600F018FB30
:103AF00071490840FCF79EFE1C9C22466F4BFCF768
:103B000075FDFCF73DFD27901D9E3046FCF76CFFD0
:103B10002590FCF7B3FF0146304600F001FB2390EF
:103B20002698002800D11E9C2046FCF75DFF2490BB
:103B3000FCF7A4FF0146204600F0F2FA5E49084077
:103B4000FCF778FE1C9A5D4BFCF750FDFCF718FD66
:103B50002690002D00D11F951F9C2046FCF744FFA6
:103B60000746FCF78BFF0146204600F0D9FA524E7B
:103B70003040FCF75FFE1C9C2246504D2B46FCF764
:103B800035FDFCF7FDFC064623984B490840FCF741
:103B900051FE22462B46FCF729FDFCF7F1FC0346BB
:103BA000249D0095269801902397029722960396CC
:103BB00028980490279E059636AC20464049259FBC
:103BC0003A461F93FCF788FB2046FCF793FC82B231
:103BD000304821461B9BFEF783FC2D490878401C8A
:103BE0000870C0B2022800D25AE4002628480670A5
:103BF00000952698019057AC204632A13A461F9B6B
:103C0000FCF76AFB289800902798019029AF384666
:103C100032A1239A229BFCF75FFB30463146FFF727
:103C20008FFA2046FFF7AEFA01203146FFF788FAF7
:103C30003846FFF7A7FA33E42398FCF727FF174924
:103C4000FCF722FE1649FCF71FFE164900F010FA99
:103C5000184900F00DFA1D902698002800D1E1E6E1
:103C60002498FCF713FF0D49FCF70EFE0C49FCF7F6
:103C70000BFE0C4900F0FCF90E4900F0F9F91E901A
:103C8000002F00D0D0E6DFE600080050000400500E
:103C90007000002024010020C80000200000204106
:103CA00000F07F453333534000004040CDCC4C3EC4
:103CB0002B87763FDD24763FFFFFFF7F00005940D2
:103CC0007442000856313A2532642E25303264564B
:103CD000323A2532642E25303264000056333A25BC
:103CE00032642E2530326456443A2532642E253013
:103CF0003264000043088B421AD3002203098B422E
:103D000079D3030A8B425ED3030B8B4242D3030C5D
:103D10008B4227D30902FF2212BA030C8B4202D333
:103D20001212090203D0030B8B4233D31AE0D3E003
:103D3000411A8041401C704703460B4371D443082D
:103D40008B42F5D3002203098B4254D3030A8B42E2
:103D500039D3030B8B421DD3030C8B4202D3944601
:103D60006EE0090AC30B8B4201D3CB03C01A524148
:103D7000830B8B4201D38B03C01A5241430B8B42FE
:103D800001D34B03C01A5241030B8B4201D30B03E7
:103D9000C01A5241C30A8B4201D3CB02C01A52410E
:103DA000830A8B4201D38B02C01A5241430A8B42D1
:103DB00001D34B02C01A5241030A8B4201D30B02BA
:103DC000C01A5241CDD2C3098B4201D3CB01C01AD4
:103DD000524183098B4201D38B01C01A52414309DE
:103DE0008B4201D34B01C01A524103098B4201D3CC
:103DF0000B01C01A5241C3088B4201D3CB00C01A39
:103E0000524183088B4201D38B00C01A52414308B0
:103E10008B4201D34B00C01A5241411A524110004B
:103E20007047CA0F00D04942031000D340425340AC
:103E300000229C4603098B422DD3030A8B4212D3E6
:103E40008901FC2212BA030A8B420CD38901921118
:103E50008B4208D3890192118B4204D3890137D058
:103E6000921100E08909C3098B4201D3CB01C01A2A
:103E7000524183098B4201D38B01C01A524143093D
:103E80008B4201D34B01C01A524103098B4201D32B
:103E90000B01C01A5241C3088B4201D3CB00C01A98
:103EA000524183088B4201D38B00C01A5241D9D2B0
:103EB00043088B4201D34B00C01A5241411A00D231
:103EC00001465241104663465B1000D340427047A2
:103ED00063465B1000D3404201B50021004201D08F
:103EE000C9430846C046C04602BD10B500F06CF894
:103EF000EFF30080800001D5012010BD002010BD2F
:103F000010B500F061F8EFF300804000800F012849
:103F100000D0002010BD10B500F080F8EFF3008055
:103F2000800001D4012010BD002010BD30380A28C7
:103F300001D20120704700207047000070B50125B4
:103F4000ED0704004C4020D4441A01D2001B09198B
:103F5000C60D4B00F2B2FF2A29D01B0E2CD0000256
:103F60000C0228432C43D31ADC40051910D2280A2E
:103F700002D3401C6D0611D0761EF6058019FF2A6B
:103F800000DA70BDC00DC00570BD694000F0CEF80C
:103F900001200543C541521C761CE8E764089C409B
:103FA000C90161408900E7D10124A043E4E71B0E69
:103FB000440200D0034870BD002AFCD1C00FC007E6
:103FC00070BD00BF0000C07F0123DB0502000A4373
:103FD0000DD4DA4203D49A4207D488427047D842BB
:103FE00014D4D94212D48842704780427047DA42D2
:103FF00003D59A42F9D5814270475B004200DA420C
:1040000004D24A00DA4201D28142704710B5024A16
:10401000FCF7CAFD10BD00BF090013040123DB0536
:1040200002000A430DD4DA4203D49A4207D48842EC
:104030007047D84214D4D94212D488427047804283
:104040007047DA4203D59A42F9D5814270475B0046
:104050004200DA4204D24A00DA4201D28142704779
:1040600010B5024AFCF7A0FD10BD00BF0900160400
:1040700070B5420064414B005C41120E39D01B0EFA
:1040800038D0FF2A3CD0FF2B3AD0D2187F3A4002DA
:104090004902400A490A4518ED0106004E43000A4C
:1040A000090A48430104731A4019190C4318990F5F
:1040B00004D05B08012149075B1A521CD80904D3BC
:1040C000401CF50301D19D0607D0FF2A08D2D50573
:1040D00006D0E4072043401970BD0125A843F4E74A
:1040E000002A01DCE00770BD2402FF202043C00548
:1040F00070BD1B0EFF2A03D0FF2B01D0E00770BD5F
:10410000FF2636064500B54206D84D00B54203D815
:10411000D218FF2A00D0E7E7004870BD0000C07F3A
:1041200070B50125ED0704004C4022D4441A02D298
:104130006C40001B0919C60D4B00F2B2FF2A4BD090
:104140001B0E50D000020C02A8432C43D31ADC40B3
:10415000051B05D5AD0019D36D08761E521E37D04C
:10416000F605280A01D2801970BD70416D0603D092
:1041700070BD6940FFF7E8FE9C40090261404900BC
:1041800001D0401E70BD0124A04370BD6D081DD03C
:1041900001202B0C01D12D0410302B0E01D12D024A
:1041A00008302B0F01D12D01001DAB0F01D1AD0047
:1041B000801CEB0F01D16D00401C361A121A6D00E5
:1041C000680AF5054019012A02DB70BD002070BDA8
:1041D000C036300AC00770BD1B0E440201D1FF2B50
:1041E00000D1024870BD002AF0D070BD0000C07F31
:1041F00004000008000000000000000200010000B0
:10420000108182838485868788898B8C8D8E8F919F
:104210009293959697999A9C9D9FA0A2A3A5A7A8D3
:10422000AAACAEB0B2B3B5B7B9BCBEC0C2C5C7C9FF
:10423000CCCED1D4D7D9DCDFE2E6E9ECF0F3F7FA63
:10424000FE00000000000000000102030406070851
:10425000090000000001020304030406080C101802
:1042600020300000000000000400000002000000F8
:104270000800000056313A202532642E2530326481
:104280002056207C2056323A202532642E253032AA
:10429000642056207C2056333A202532642E253067
:1042A00032642056202D2D2D3E2056696475726B88
:1042B00069733A202532642E2530326420560D0A67
:1042C00000000000E842000800000020100000008C
:1042D0001C010008F842000810000020A0070000A0
:1042E0003C01000800000000010000000400000084
:0842F0000000200000000000A6
:04000005080000C12E
:00000001FF
